{
  "contractName": "BookLending",
  "abi": [
    {
      "inputs": [],
      "payable": false,
      "stateMutability": "nonpayable",
      "type": "constructor"
    },
    {
      "anonymous": false,
      "inputs": [
        {
          "indexed": false,
          "internalType": "uint256",
          "name": "bookId",
          "type": "uint256"
        },
        {
          "indexed": false,
          "internalType": "string",
          "name": "title",
          "type": "string"
        },
        {
          "indexed": false,
          "internalType": "string",
          "name": "author",
          "type": "string"
        }
      ],
      "name": "BookAdded",
      "type": "event"
    },
    {
      "anonymous": false,
      "inputs": [
        {
          "indexed": false,
          "internalType": "uint256",
          "name": "bookId",
          "type": "uint256"
        },
        {
          "indexed": false,
          "internalType": "address",
          "name": "borrower",
          "type": "address"
        },
        {
          "indexed": false,
          "internalType": "uint256",
          "name": "dueDate",
          "type": "uint256"
        }
      ],
      "name": "BookBorrowed",
      "type": "event"
    },
    {
      "anonymous": false,
      "inputs": [
        {
          "indexed": false,
          "internalType": "uint256",
          "name": "bookId",
          "type": "uint256"
        }
      ],
      "name": "BookRemoved",
      "type": "event"
    },
    {
      "anonymous": false,
      "inputs": [
        {
          "indexed": false,
          "internalType": "uint256",
          "name": "bookId",
          "type": "uint256"
        },
        {
          "indexed": false,
          "internalType": "address",
          "name": "borrower",
          "type": "address"
        }
      ],
      "name": "BookReturned",
      "type": "event"
    },
    {
      "anonymous": false,
      "inputs": [
        {
          "indexed": false,
          "internalType": "address",
          "name": "librarian",
          "type": "address"
        }
      ],
      "name": "LibrarianAdded",
      "type": "event"
    },
    {
      "anonymous": false,
      "inputs": [
        {
          "indexed": false,
          "internalType": "address",
          "name": "librarian",
          "type": "address"
        }
      ],
      "name": "LibrarianRemoved",
      "type": "event"
    },
    {
      "constant": true,
      "inputs": [],
      "name": "bookCount",
      "outputs": [
        {
          "internalType": "uint256",
          "name": "",
          "type": "uint256"
        }
      ],
      "payable": false,
      "stateMutability": "view",
      "type": "function"
    },
    {
      "constant": true,
      "inputs": [
        {
          "internalType": "uint256",
          "name": "",
          "type": "uint256"
        }
      ],
      "name": "books",
      "outputs": [
        {
          "internalType": "uint256",
          "name": "id",
          "type": "uint256"
        },
        {
          "internalType": "string",
          "name": "title",
          "type": "string"
        },
        {
          "internalType": "string",
          "name": "author",
          "type": "string"
        },
        {
          "internalType": "bool",
          "name": "available",
          "type": "bool"
        },
        {
          "internalType": "address",
          "name": "borrower",
          "type": "address"
        },
        {
          "internalType": "uint256",
          "name": "dueDate",
          "type": "uint256"
        }
      ],
      "payable": false,
      "stateMutability": "view",
      "type": "function"
    },
    {
      "constant": true,
      "inputs": [
        {
          "internalType": "uint256",
          "name": "",
          "type": "uint256"
        }
      ],
      "name": "librarianList",
      "outputs": [
        {
          "internalType": "address",
          "name": "",
          "type": "address"
        }
      ],
      "payable": false,
      "stateMutability": "view",
      "type": "function"
    },
    {
      "constant": true,
      "inputs": [
        {
          "internalType": "address",
          "name": "",
          "type": "address"
        }
      ],
      "name": "librarians",
      "outputs": [
        {
          "internalType": "bool",
          "name": "",
          "type": "bool"
        }
      ],
      "payable": false,
      "stateMutability": "view",
      "type": "function"
    },
    {
      "constant": true,
      "inputs": [],
      "name": "owner",
      "outputs": [
        {
          "internalType": "address",
          "name": "",
          "type": "address"
        }
      ],
      "payable": false,
      "stateMutability": "view",
      "type": "function"
    },
    {
      "constant": false,
      "inputs": [
        {
          "internalType": "address",
          "name": "_librarian",
          "type": "address"
        }
      ],
      "name": "addLibrarian",
      "outputs": [],
      "payable": false,
      "stateMutability": "nonpayable",
      "type": "function"
    },
    {
      "constant": false,
      "inputs": [
        {
          "internalType": "address",
          "name": "_librarian",
          "type": "address"
        }
      ],
      "name": "removeLibrarian",
      "outputs": [],
      "payable": false,
      "stateMutability": "nonpayable",
      "type": "function"
    },
    {
      "constant": true,
      "inputs": [],
      "name": "getLibrarians",
      "outputs": [
        {
          "internalType": "address[]",
          "name": "",
          "type": "address[]"
        }
      ],
      "payable": false,
      "stateMutability": "view",
      "type": "function"
    },
    {
      "constant": false,
      "inputs": [
        {
          "internalType": "string",
          "name": "_title",
          "type": "string"
        },
        {
          "internalType": "string",
          "name": "_author",
          "type": "string"
        }
      ],
      "name": "addBook",
      "outputs": [],
      "payable": false,
      "stateMutability": "nonpayable",
      "type": "function"
    },
    {
      "constant": false,
      "inputs": [
        {
          "internalType": "uint256",
          "name": "_bookId",
          "type": "uint256"
        }
      ],
      "name": "removeBook",
      "outputs": [],
      "payable": false,
      "stateMutability": "nonpayable",
      "type": "function"
    },
    {
      "constant": false,
      "inputs": [
        {
          "internalType": "uint256",
          "name": "_bookId",
          "type": "uint256"
        },
        {
          "internalType": "uint256",
          "name": "_durationSeconds",
          "type": "uint256"
        }
      ],
      "name": "borrowBook",
      "outputs": [],
      "payable": false,
      "stateMutability": "nonpayable",
      "type": "function"
    },
    {
      "constant": false,
      "inputs": [
        {
          "internalType": "uint256",
          "name": "_bookId",
          "type": "uint256"
        }
      ],
      "name": "returnBook",
      "outputs": [],
      "payable": false,
      "stateMutability": "nonpayable",
      "type": "function"
    },
    {
      "constant": false,
      "inputs": [
        {
          "internalType": "uint256",
          "name": "_bookId",
          "type": "uint256"
        },
        {
          "internalType": "uint256",
          "name": "_extraSeconds",
          "type": "uint256"
        }
      ],
      "name": "extendDueDate",
      "outputs": [],
      "payable": false,
      "stateMutability": "nonpayable",
      "type": "function"
    },
    {
      "constant": true,
      "inputs": [
        {
          "internalType": "uint256",
          "name": "_bookId",
          "type": "uint256"
        }
      ],
      "name": "getBook",
      "outputs": [
        {
          "internalType": "uint256",
          "name": "id",
          "type": "uint256"
        },
        {
          "internalType": "string",
          "name": "title",
          "type": "string"
        },
        {
          "internalType": "string",
          "name": "author",
          "type": "string"
        },
        {
          "internalType": "bool",
          "name": "available",
          "type": "bool"
        },
        {
          "internalType": "address",
          "name": "borrower",
          "type": "address"
        },
        {
          "internalType": "uint256",
          "name": "dueDate",
          "type": "uint256"
        }
      ],
      "payable": false,
      "stateMutability": "view",
      "type": "function"
    },
    {
      "constant": true,
      "inputs": [
        {
          "internalType": "address",
          "name": "_addr",
          "type": "address"
        }
      ],
      "name": "isLibrarian",
      "outputs": [
        {
          "internalType": "bool",
          "name": "",
          "type": "bool"
        }
      ],
      "payable": false,
      "stateMutability": "view",
      "type": "function"
    }
  ],
  "bytecode": "0x6080604052600060015534801561001557600080fd5b50336000806101000a81548173ffffffffffffffffffffffffffffffffffffffff021916908373ffffffffffffffffffffffffffffffffffffffff1602179055506001600360003373ffffffffffffffffffffffffffffffffffffffff1673ffffffffffffffffffffffffffffffffffffffff16815260200190815260200160002060006101000a81548160ff02191690831515021790555060043390806001815401808255809150509060018203906000526020600020016000909192909190916101000a81548173ffffffffffffffffffffffffffffffffffffffff021916908373ffffffffffffffffffffffffffffffffffffffff160217905550507f16572668e3a0fff1a9fc06775efea5087c06ec5e0eb1513244171ef5f31b89c433604051808273ffffffffffffffffffffffffffffffffffffffff1673ffffffffffffffffffffffffffffffffffffffff16815260200191505060405180910390a16122b6806101866000396000f3fe608060405234801561001057600080fd5b50600436106100f55760003560e01c806394808af111610097578063ca5140c911610066578063ca5140c914610528578063d8a7233e14610556578063e0ff5b8b146106a8578063e8d5cb4014610807576100f5565b806394808af1146104455780639fec21f01461047d578063b905ad78146104dc578063bec0d799146104fa576100f5565b80635d40e3c1116100d35780635d40e3c1146101e457806368744046146102405780638691e05f1461039f5780638da5cb5b146103fb576100f5565b80632fe11f57146100fa578063375ccd2b1461016857806351f87964146101ac575b600080fd5b6101266004803603602081101561011057600080fd5b810190808035906020019092919050505061084b565b604051808273ffffffffffffffffffffffffffffffffffffffff1673ffffffffffffffffffffffffffffffffffffffff16815260200191505060405180910390f35b6101aa6004803603602081101561017e57600080fd5b81019080803573ffffffffffffffffffffffffffffffffffffffff169060200190929190505050610887565b005b6101e2600480360360408110156101c257600080fd5b810190808035906020019092919080359060200190929190505050610bd0565b005b610226600480360360208110156101fa57600080fd5b81019080803573ffffffffffffffffffffffffffffffffffffffff169060200190929190505050610e4a565b604051808215151515815260200191505060405180910390f35b61026c6004803603602081101561025657600080fd5b8101908080359060200190929190505050610e6a565b604051808781526020018060200180602001861515151581526020018573ffffffffffffffffffffffffffffffffffffffff1673ffffffffffffffffffffffffffffffffffffffff168152602001848152602001838103835288818151815260200191508051906020019080838360005b838110156102f85780820151818401526020810190506102dd565b50505050905090810190601f1680156103255780820380516001836020036101000a031916815260200191505b50838103825287818151815260200191508051906020019080838360005b8381101561035e578082015181840152602081019050610343565b50505050905090810190601f16801561038b5780820380516001836020036101000a031916815260200191505b509850505050505050505060405180910390f35b6103e1600480360360208110156103b557600080fd5b81019080803573ffffffffffffffffffffffffffffffffffffffff169060200190929190505050611003565b604051808215151515815260200191505060405180910390f35b610403611059565b604051808273ffffffffffffffffffffffffffffffffffffffff1673ffffffffffffffffffffffffffffffffffffffff16815260200191505060405180910390f35b61047b6004803603604081101561045b57600080fd5b81019080803590602001909291908035906020019092919050505061107e565b005b610485611364565b6040518080602001828103825283818151815260200191508051906020019060200280838360005b838110156104c85780820151818401526020810190506104ad565b505050509050019250505060405180910390f35b6104e46113f2565b6040518082815260200191505060405180910390f35b6105266004803603602081101561051057600080fd5b81019080803590602001909291905050506113f8565b005b6105546004803603602081101561053e57600080fd5b81019080803590602001909291905050506116e7565b005b6106a66004803603604081101561056c57600080fd5b810190808035906020019064010000000081111561058957600080fd5b82018360208201111561059b57600080fd5b803590602001918460018302840111640100000000831117156105bd57600080fd5b91908080601f016020809104026020016040519081016040528093929190818152602001838380828437600081840152601f19601f8201169050808301925050505050505091929192908035906020019064010000000081111561062057600080fd5b82018360208201111561063257600080fd5b8035906020019184600183028401116401000000008311171561065457600080fd5b91908080601f016020809104026020016040519081016040528093929190818152602001838380828437600081840152601f19601f8201169050808301925050505050505091929192905050506119cd565b005b6106d4600480360360208110156106be57600080fd5b8101908080359060200190929190505050611d23565b604051808781526020018060200180602001861515151581526020018573ffffffffffffffffffffffffffffffffffffffff1673ffffffffffffffffffffffffffffffffffffffff168152602001848152602001838103835288818151815260200191508051906020019080838360005b83811015610760578082015181840152602081019050610745565b50505050905090810190601f16801561078d5780820380516001836020036101000a031916815260200191505b50838103825287818151815260200191508051906020019080838360005b838110156107c65780820151818401526020810190506107ab565b50505050905090810190601f1680156107f35780820380516001836020036101000a031916815260200191505b509850505050505050505060405180910390f35b6108496004803603602081101561081d57600080fd5b81019080803573ffffffffffffffffffffffffffffffffffffffff169060200190929190505050611f55565b005b6004818154811061085857fe5b906000526020600020016000915054906101000a900473ffffffffffffffffffffffffffffffffffffffff1681565b6000809054906101000a900473ffffffffffffffffffffffffffffffffffffffff1673ffffffffffffffffffffffffffffffffffffffff163373ffffffffffffffffffffffffffffffffffffffff1614610949576040517f08c379a000000000000000000000000000000000000000000000000000000000815260040180806020018281038252600a8152602001807f4f6e6c79206f776e65720000000000000000000000000000000000000000000081525060200191505060405180910390fd5b600073ffffffffffffffffffffffffffffffffffffffff168173ffffffffffffffffffffffffffffffffffffffff1614156109ec576040517f08c379a000000000000000000000000000000000000000000000000000000000815260040180806020018281038252600f8152602001807f496e76616c69642061646472657373000000000000000000000000000000000081525060200191505060405180910390fd5b600360008273ffffffffffffffffffffffffffffffffffffffff1673ffffffffffffffffffffffffffffffffffffffff16815260200190815260200160002060009054906101000a900460ff1615610aac576040517f08c379a00000000000000000000000000000000000000000000000000000000081526004018080602001828103825260118152602001807f416c7265616479206c696272617269616e00000000000000000000000000000081525060200191505060405180910390fd5b6001600360008373ffffffffffffffffffffffffffffffffffffffff1673ffffffffffffffffffffffffffffffffffffffff16815260200190815260200160002060006101000a81548160ff02191690831515021790555060048190806001815401808255809150509060018203906000526020600020016000909192909190916101000a81548173ffffffffffffffffffffffffffffffffffffffff021916908373ffffffffffffffffffffffffffffffffffffffff160217905550507f16572668e3a0fff1a9fc06775efea5087c06ec5e0eb1513244171ef5f31b89c481604051808273ffffffffffffffffffffffffffffffffffffffff1673ffffffffffffffffffffffffffffffffffffffff16815260200191505060405180910390a150565b6000600260008481526020019081526020016000209050600081600001541415610c62576040517f08c379a000000000000000000000000000000000000000000000000000000000815260040180806020018281038252600e8152602001807f426f6f6b206e6f7420666f756e6400000000000000000000000000000000000081525060200191505060405180910390fd5b600115158160030160009054906101000a900460ff16151514610ced576040517f08c379a00000000000000000000000000000000000000000000000000000000081526004018080602001828103825260128152602001807f426f6f6b206e6f7420617661696c61626c65000000000000000000000000000081525060200191505060405180910390fd5b60008211610d63576040517f08c379a00000000000000000000000000000000000000000000000000000000081526004018080602001828103825260108152602001807f496e76616c6964206475726174696f6e0000000000000000000000000000000081525060200191505060405180910390fd5b60008160030160006101000a81548160ff021916908315150217905550338160030160016101000a81548173ffffffffffffffffffffffffffffffffffffffff021916908373ffffffffffffffffffffffffffffffffffffffff16021790555081420181600401819055507fbb2c37eab45367d500c425b7a28430e8f309d8b3905fd5a2942e5179f5737db983338360040154604051808481526020018373ffffffffffffffffffffffffffffffffffffffff1673ffffffffffffffffffffffffffffffffffffffff168152602001828152602001935050505060405180910390a1505050565b60036020528060005260406000206000915054906101000a900460ff1681565b6002602052806000526040600020600091509050806000015490806001018054600181600116156101000203166002900480601f016020809104026020016040519081016040528092919081815260200182805460018160011615610100020316600290048015610f1c5780601f10610ef157610100808354040283529160200191610f1c565b820191906000526020600020905b815481529060010190602001808311610eff57829003601f168201915b505050505090806002018054600181600116156101000203166002900480601f016020809104026020016040519081016040528092919081815260200182805460018160011615610100020316600290048015610fba5780601f10610f8f57610100808354040283529160200191610fba565b820191906000526020600020905b815481529060010190602001808311610f9d57829003601f168201915b5050505050908060030160009054906101000a900460ff16908060030160019054906101000a900473ffffffffffffffffffffffffffffffffffffffff16908060040154905086565b6000600360008373ffffffffffffffffffffffffffffffffffffffff1673ffffffffffffffffffffffffffffffffffffffff16815260200190815260200160002060009054906101000a900460ff169050919050565b6000809054906101000a900473ffffffffffffffffffffffffffffffffffffffff1681565b6000600260008481526020019081526020016000209050600081600001541415611110576040517f08c379a000000000000000000000000000000000000000000000000000000000815260040180806020018281038252600e8152602001807f426f6f6b206e6f7420666f756e6400000000000000000000000000000000000081525060200191505060405180910390fd5b600015158160030160009054906101000a900460ff1615151461119b576040517f08c379a00000000000000000000000000000000000000000000000000000000081526004018080602001828103825260118152602001807f426f6f6b206e6f7420626f72726f77656400000000000000000000000000000081525060200191505060405180910390fd5b3373ffffffffffffffffffffffffffffffffffffffff168160030160019054906101000a900473ffffffffffffffffffffffffffffffffffffffff1673ffffffffffffffffffffffffffffffffffffffff1614611260576040517f08c379a00000000000000000000000000000000000000000000000000000000081526004018080602001828103825260188152602001807f4f6e6c7920626f72726f7765722063616e20657874656e64000000000000000081525060200191505060405180910390fd5b600082116112d6576040517f08c379a00000000000000000000000000000000000000000000000000000000081526004018080602001828103825260118152602001807f496e76616c696420657874656e73696f6e00000000000000000000000000000081525060200191505060405180910390fd5b8181600401600082825401925050819055507fbb2c37eab45367d500c425b7a28430e8f309d8b3905fd5a2942e5179f5737db983338360040154604051808481526020018373ffffffffffffffffffffffffffffffffffffffff1673ffffffffffffffffffffffffffffffffffffffff168152602001828152602001935050505060405180910390a1505050565b606060048054806020026020016040519081016040528092919081815260200182805480156113e857602002820191906000526020600020905b8160009054906101000a900473ffffffffffffffffffffffffffffffffffffffff1673ffffffffffffffffffffffffffffffffffffffff168152602001906001019080831161139e575b5050505050905090565b60015481565b6000809054906101000a900473ffffffffffffffffffffffffffffffffffffffff1673ffffffffffffffffffffffffffffffffffffffff163373ffffffffffffffffffffffffffffffffffffffff16148061149c5750600360003373ffffffffffffffffffffffffffffffffffffffff1673ffffffffffffffffffffffffffffffffffffffff16815260200190815260200160002060009054906101000a900460ff165b61150e576040517f08c379a00000000000000000000000000000000000000000000000000000000081526004018080602001828103825260178152602001807f4f6e6c79206c696272617269616e206f72206f776e657200000000000000000081525060200191505060405180910390fd5b60006002600083815260200190815260200160002090506000816000015414156115a0576040517f08c379a000000000000000000000000000000000000000000000000000000000815260040180806020018281038252600e8152602001807f426f6f6b206e6f7420666f756e6400000000000000000000000000000000000081525060200191505060405180910390fd5b600115158160030160009054906101000a900460ff1615151461162b576040517f08c379a00000000000000000000000000000000000000000000000000000000081526004018080602001828103825260178152602001807f426f6f6b2063757272656e746c7920626f72726f77656400000000000000000081525060200191505060405180910390fd5b600260008381526020019081526020016000206000808201600090556001820160006116579190612194565b6002820160006116679190612194565b6003820160006101000a81549060ff02191690556003820160016101000a81549073ffffffffffffffffffffffffffffffffffffffff0219169055600482016000905550507f3c5ce13264433bcf97e5d53c97af4fc33800e8c9dd927f965b116d0018d7cddf826040518082815260200191505060405180910390a15050565b6000600260008381526020019081526020016000209050600081600001541415611779576040517f08c379a000000000000000000000000000000000000000000000000000000000815260040180806020018281038252600e8152602001807f426f6f6b206e6f7420666f756e6400000000000000000000000000000000000081525060200191505060405180910390fd5b600015158160030160009054906101000a900460ff16151514611804576040517f08c379a00000000000000000000000000000000000000000000000000000000081526004018080602001828103825260118152602001807f426f6f6b206e6f7420626f72726f77656400000000000000000000000000000081525060200191505060405180910390fd5b3373ffffffffffffffffffffffffffffffffffffffff168160030160019054906101000a900473ffffffffffffffffffffffffffffffffffffffff1673ffffffffffffffffffffffffffffffffffffffff16146118c9576040517f08c379a00000000000000000000000000000000000000000000000000000000081526004018080602001828103825260188152602001807f4f6e6c7920626f72726f7765722063616e2072657475726e000000000000000081525060200191505060405180910390fd5b60008160030160019054906101000a900473ffffffffffffffffffffffffffffffffffffffff16905060018260030160006101000a81548160ff02191690831515021790555060008260030160016101000a81548173ffffffffffffffffffffffffffffffffffffffff021916908373ffffffffffffffffffffffffffffffffffffffff160217905550600082600401819055507f8430f3edf8e599216e82e74036a3997b56dda6283ea97e28f330b76e914eef618382604051808381526020018273ffffffffffffffffffffffffffffffffffffffff1673ffffffffffffffffffffffffffffffffffffffff1681526020019250505060405180910390a1505050565b6000809054906101000a900473ffffffffffffffffffffffffffffffffffffffff1673ffffffffffffffffffffffffffffffffffffffff163373ffffffffffffffffffffffffffffffffffffffff161480611a715750600360003373ffffffffffffffffffffffffffffffffffffffff1673ffffffffffffffffffffffffffffffffffffffff16815260200190815260200160002060009054906101000a900460ff165b611ae3576040517f08c379a00000000000000000000000000000000000000000000000000000000081526004018080602001828103825260178152602001807f4f6e6c79206c696272617269616e206f72206f776e657200000000000000000081525060200191505060405180910390fd5b6001600081548092919060010191905055506040518060c001604052806001548152602001838152602001828152602001600115158152602001600073ffffffffffffffffffffffffffffffffffffffff1681526020016000815250600260006001548152602001908152602001600020600082015181600001556020820151816001019080519060200190611b7a9291906121dc565b506040820151816002019080519060200190611b979291906121dc565b5060608201518160030160006101000a81548160ff02191690831515021790555060808201518160030160016101000a81548173ffffffffffffffffffffffffffffffffffffffff021916908373ffffffffffffffffffffffffffffffffffffffff16021790555060a082015181600401559050507ff3af718913a5a546501afa100bc90d209d682ade91b77ac38ed42c6849230c3c6001548383604051808481526020018060200180602001838103835285818151815260200191508051906020019080838360005b83811015611c7c578082015181840152602081019050611c61565b50505050905090810190601f168015611ca95780820380516001836020036101000a031916815260200191505b50838103825284818151815260200191508051906020019080838360005b83811015611ce2578082015181840152602081019050611cc7565b50505050905090810190601f168015611d0f5780820380516001836020036101000a031916815260200191505b509550505050505060405180910390a15050565b6000606080600080600080600260008981526020019081526020016000209050600081600001541415611dbe576040517f08c379a000000000000000000000000000000000000000000000000000000000815260040180806020018281038252600e8152602001807f426f6f6b206e6f7420666f756e6400000000000000000000000000000000000081525060200191505060405180910390fd5b806000015481600101826002018360030160009054906101000a900460ff168460030160019054906101000a900473ffffffffffffffffffffffffffffffffffffffff168560040154848054600181600116156101000203166002900480601f016020809104026020016040519081016040528092919081815260200182805460018160011615610100020316600290048015611e9c5780601f10611e7157610100808354040283529160200191611e9c565b820191906000526020600020905b815481529060010190602001808311611e7f57829003601f168201915b50505050509450838054600181600116156101000203166002900480601f016020809104026020016040519081016040528092919081815260200182805460018160011615610100020316600290048015611f385780601f10611f0d57610100808354040283529160200191611f38565b820191906000526020600020905b815481529060010190602001808311611f1b57829003601f168201915b505050505093509650965096509650965096505091939550919395565b6000809054906101000a900473ffffffffffffffffffffffffffffffffffffffff1673ffffffffffffffffffffffffffffffffffffffff163373ffffffffffffffffffffffffffffffffffffffff1614612017576040517f08c379a000000000000000000000000000000000000000000000000000000000815260040180806020018281038252600a8152602001807f4f6e6c79206f776e65720000000000000000000000000000000000000000000081525060200191505060405180910390fd5b600360008273ffffffffffffffffffffffffffffffffffffffff1673ffffffffffffffffffffffffffffffffffffffff16815260200190815260200160002060009054906101000a900460ff166120d6576040517f08c379a000000000000000000000000000000000000000000000000000000000815260040180806020018281038252600f8152602001807f4e6f742061206c696272617269616e000000000000000000000000000000000081525060200191505060405180910390fd5b6000600360008373ffffffffffffffffffffffffffffffffffffffff1673ffffffffffffffffffffffffffffffffffffffff16815260200190815260200160002060006101000a81548160ff0219169083151502179055507fa31fc4c170b617fd2a2a0ea31d00e5c136f4feba7477b3728961808274808d8881604051808273ffffffffffffffffffffffffffffffffffffffff1673ffffffffffffffffffffffffffffffffffffffff16815260200191505060405180910390a150565b50805460018160011615610100020316600290046000825580601f106121ba57506121d9565b601f0160209004906000526020600020908101906121d8919061225c565b5b50565b828054600181600116156101000203166002900490600052602060002090601f016020900481019282601f1061221d57805160ff191683800117855561224b565b8280016001018555821561224b579182015b8281111561224a57825182559160200191906001019061222f565b5b509050612258919061225c565b5090565b61227e91905b8082111561227a576000816000905550600101612262565b5090565b9056fea265627a7a723158205e641d6dc84d32851389d0503221b5c5a3c53d12f83792d70acff5f394e0e70964736f6c63430005100032",
  "source": "// SPDX-License-Identifier: MIT\npragma solidity ^0.5.16;\n\n/// @title Decentralized Book Lending System for University Libraries\n/// @notice System for adding, borrowing, and returning library books\ncontract BookLending {\n    address public owner;\n\n    struct Book {\n        uint id;\n        string title;\n        string author;\n        bool available;\n        address borrower;\n        uint dueDate; // timestamp\n    }\n\n    uint public bookCount = 0;\n    mapping(uint => Book) public books;\n\n    // ======== LIBRARIAN SYSTEM =========\n    mapping(address => bool) public librarians;\n    address[] public librarianList;  // NEW for listing\n\n    // ======== EVENTS =========\n    event BookAdded(uint bookId, string title, string author);\n    event BookRemoved(uint bookId);\n    event BookBorrowed(uint bookId, address borrower, uint dueDate);\n    event BookReturned(uint bookId, address borrower);\n\n    event LibrarianAdded(address librarian);\n    event LibrarianRemoved(address librarian);\n\n    modifier onlyOwner() {\n        require(msg.sender == owner, \"Only owner\");\n        _;\n    }\n\n    modifier onlyLibrarianOrOwner() {\n        require(msg.sender == owner || librarians[msg.sender], \"Only librarian or owner\");\n        _;\n    }\n\n    constructor() public {\n        owner = msg.sender;\n        librarians[msg.sender] = true;\n        librarianList.push(msg.sender); // owner menjadi librarian pertama\n        emit LibrarianAdded(msg.sender);\n    }\n\n    // ================================\n    //   LIBRARIAN MANAGEMENT (UPDATED)\n    // ================================\n\n    function addLibrarian(address _librarian) public onlyOwner {\n        require(_librarian != address(0), \"Invalid address\");\n        require(!librarians[_librarian], \"Already librarian\");\n\n        librarians[_librarian] = true;\n        librarianList.push(_librarian);\n\n        emit LibrarianAdded(_librarian);\n    }\n\n    function removeLibrarian(address _librarian) public onlyOwner {\n        require(librarians[_librarian], \"Not a librarian\");\n\n        librarians[_librarian] = false;\n        emit LibrarianRemoved(_librarian);\n    }\n\n    /// @notice Get the full list of librarians (for frontend)\n    function getLibrarians() public view returns (address[] memory) {\n        return librarianList;\n    }\n\n    // ================================\n    //        BOOK MANAGEMENT\n    // ================================\n\n    function addBook(string memory _title, string memory _author) public onlyLibrarianOrOwner {\n        bookCount++;\n        books[bookCount] = Book({\n            id: bookCount,\n            title: _title,\n            author: _author,\n            available: true,\n            borrower: address(0),\n            dueDate: 0\n        });\n\n        emit BookAdded(bookCount, _title, _author);\n    }\n\n    function removeBook(uint _bookId) public onlyLibrarianOrOwner {\n        Book storage b = books[_bookId];\n        require(b.id != 0, \"Book not found\");\n        require(b.available == true, \"Book currently borrowed\");\n\n        delete books[_bookId];\n\n        emit BookRemoved(_bookId);\n    }\n\n    function borrowBook(uint _bookId, uint _durationSeconds) public {\n        Book storage b = books[_bookId];\n        require(b.id != 0, \"Book not found\");\n        require(b.available == true, \"Book not available\");\n        require(_durationSeconds > 0, \"Invalid duration\");\n\n        b.available = false;\n        b.borrower = msg.sender;\n        b.dueDate = now + _durationSeconds;\n\n        emit BookBorrowed(_bookId, msg.sender, b.dueDate);\n    }\n\n    function returnBook(uint _bookId) public {\n        Book storage b = books[_bookId];\n        require(b.id != 0, \"Book not found\");\n        require(b.available == false, \"Book not borrowed\");\n        require(b.borrower == msg.sender, \"Only borrower can return\");\n\n        address borrowerAddr = b.borrower;\n\n        b.available = true;\n        b.borrower = address(0);\n        b.dueDate = 0;\n\n        emit BookReturned(_bookId, borrowerAddr);\n    }\n\n    function extendDueDate(uint _bookId, uint _extraSeconds) public {\n        Book storage b = books[_bookId];\n        require(b.id != 0, \"Book not found\");\n        require(b.available == false, \"Book not borrowed\");\n        require(b.borrower == msg.sender, \"Only borrower can extend\");\n        require(_extraSeconds > 0, \"Invalid extension\");\n\n        b.dueDate += _extraSeconds;\n\n        emit BookBorrowed(_bookId, msg.sender, b.dueDate);\n    }\n\n    function getBook(uint _bookId)\n        public\n        view\n        returns (\n            uint id,\n            string memory title,\n            string memory author,\n            bool available,\n            address borrower,\n            uint dueDate\n        )\n    {\n        Book storage b = books[_bookId];\n        require(b.id != 0, \"Book not found\");\n\n        return (b.id, b.title, b.author, b.available, b.borrower, b.dueDate);\n    }\n\n    function isLibrarian(address _addr) public view returns (bool) {\n        return librarians[_addr];\n    }\n}\n",
  "sourcePath": "C:\\Users\\ASUS Zenbook\\Downloads\\TUBES\\contracts\\BookLending.sol",
  "compiler": {
    "name": "solc",
    "version": "0.5.16+commit.9c3226ce.Emscripten.clang"
  },
  "schemaVersion": "3.4.16",
  "updatedAt": "2025-11-27T00:59:00.150Z",
  "networkType": "ethereum",
  "devdoc": {
    "methods": {},
    "title": "Decentralized Book Lending System for University Libraries"
  },
  "userdoc": {
    "methods": {
      "getLibrarians()": {
        "notice": "Get the full list of librarians (for frontend)"
      }
    },
    "notice": "System for adding, borrowing, and returning library books"
  }
}